{
  "_format": "hh-sol-artifact-1",
  "contractName": "ConfidentialPayrollToken",
  "sourceName": "contracts/ConfidentialPayrollToken.sol",
  "abi": [
    {
      "inputs": [
        {
          "internalType": "address",
          "name": "underlyingToken",
          "type": "address"
        },
        {
          "internalType": "string",
          "name": "name",
          "type": "string"
        },
        {
          "internalType": "string",
          "name": "symbol",
          "type": "string"
        },
        {
          "internalType": "string",
          "name": "uri",
          "type": "string"
        }
      ],
      "stateMutability": "nonpayable",
      "type": "constructor"
    },
    {
      "inputs": [
        {
          "internalType": "uint256",
          "name": "requestId",
          "type": "uint256"
        }
      ],
      "name": "ERC7984InvalidGatewayRequest",
      "type": "error"
    },
    {
      "inputs": [
        {
          "internalType": "address",
          "name": "receiver",
          "type": "address"
        }
      ],
      "name": "ERC7984InvalidReceiver",
      "type": "error"
    },
    {
      "inputs": [
        {
          "internalType": "address",
          "name": "sender",
          "type": "address"
        }
      ],
      "name": "ERC7984InvalidSender",
      "type": "error"
    },
    {
      "inputs": [],
      "name": "ERC7984TotalSupplyOverflow",
      "type": "error"
    },
    {
      "inputs": [
        {
          "internalType": "address",
          "name": "caller",
          "type": "address"
        }
      ],
      "name": "ERC7984UnauthorizedCaller",
      "type": "error"
    },
    {
      "inputs": [
        {
          "internalType": "address",
          "name": "holder",
          "type": "address"
        },
        {
          "internalType": "address",
          "name": "spender",
          "type": "address"
        }
      ],
      "name": "ERC7984UnauthorizedSpender",
      "type": "error"
    },
    {
      "inputs": [
        {
          "internalType": "euint64",
          "name": "amount",
          "type": "bytes32"
        },
        {
          "internalType": "address",
          "name": "user",
          "type": "address"
        }
      ],
      "name": "ERC7984UnauthorizedUseOfEncryptedAmount",
      "type": "error"
    },
    {
      "inputs": [
        {
          "internalType": "address",
          "name": "holder",
          "type": "address"
        }
      ],
      "name": "ERC7984ZeroBalance",
      "type": "error"
    },
    {
      "inputs": [],
      "name": "InvalidKMSSignatures",
      "type": "error"
    },
    {
      "inputs": [
        {
          "internalType": "euint64",
          "name": "amount",
          "type": "bytes32"
        }
      ],
      "name": "InvalidUnwrapRequest",
      "type": "error"
    },
    {
      "inputs": [
        {
          "internalType": "uint8",
          "name": "bits",
          "type": "uint8"
        },
        {
          "internalType": "uint256",
          "name": "value",
          "type": "uint256"
        }
      ],
      "name": "SafeCastOverflowedUintDowncast",
      "type": "error"
    },
    {
      "inputs": [
        {
          "internalType": "address",
          "name": "token",
          "type": "address"
        }
      ],
      "name": "SafeERC20FailedOperation",
      "type": "error"
    },
    {
      "inputs": [
        {
          "internalType": "bytes32",
          "name": "handle",
          "type": "bytes32"
        },
        {
          "internalType": "address",
          "name": "sender",
          "type": "address"
        }
      ],
      "name": "SenderNotAllowedToUseHandle",
      "type": "error"
    },
    {
      "inputs": [],
      "name": "ZamaProtocolUnsupported",
      "type": "error"
    },
    {
      "anonymous": false,
      "inputs": [
        {
          "indexed": true,
          "internalType": "euint64",
          "name": "encryptedAmount",
          "type": "bytes32"
        },
        {
          "indexed": true,
          "internalType": "address",
          "name": "requester",
          "type": "address"
        }
      ],
      "name": "AmountDiscloseRequested",
      "type": "event"
    },
    {
      "anonymous": false,
      "inputs": [
        {
          "indexed": true,
          "internalType": "euint64",
          "name": "encryptedAmount",
          "type": "bytes32"
        },
        {
          "indexed": false,
          "internalType": "uint64",
          "name": "amount",
          "type": "uint64"
        }
      ],
      "name": "AmountDisclosed",
      "type": "event"
    },
    {
      "anonymous": false,
      "inputs": [
        {
          "indexed": true,
          "internalType": "address",
          "name": "from",
          "type": "address"
        },
        {
          "indexed": true,
          "internalType": "address",
          "name": "to",
          "type": "address"
        },
        {
          "indexed": true,
          "internalType": "euint64",
          "name": "amount",
          "type": "bytes32"
        }
      ],
      "name": "ConfidentialTransfer",
      "type": "event"
    },
    {
      "anonymous": false,
      "inputs": [
        {
          "indexed": true,
          "internalType": "address",
          "name": "holder",
          "type": "address"
        },
        {
          "indexed": true,
          "internalType": "address",
          "name": "operator",
          "type": "address"
        },
        {
          "indexed": false,
          "internalType": "uint48",
          "name": "until",
          "type": "uint48"
        }
      ],
      "name": "OperatorSet",
      "type": "event"
    },
    {
      "anonymous": false,
      "inputs": [
        {
          "indexed": false,
          "internalType": "bytes32[]",
          "name": "handlesList",
          "type": "bytes32[]"
        },
        {
          "indexed": false,
          "internalType": "bytes",
          "name": "abiEncodedCleartexts",
          "type": "bytes"
        }
      ],
      "name": "PublicDecryptionVerified",
      "type": "event"
    },
    {
      "anonymous": false,
      "inputs": [
        {
          "indexed": true,
          "internalType": "address",
          "name": "receiver",
          "type": "address"
        },
        {
          "indexed": false,
          "internalType": "euint64",
          "name": "encryptedAmount",
          "type": "bytes32"
        },
        {
          "indexed": false,
          "internalType": "uint64",
          "name": "cleartextAmount",
          "type": "uint64"
        }
      ],
      "name": "UnwrapFinalized",
      "type": "event"
    },
    {
      "anonymous": false,
      "inputs": [
        {
          "indexed": true,
          "internalType": "address",
          "name": "receiver",
          "type": "address"
        },
        {
          "indexed": false,
          "internalType": "euint64",
          "name": "amount",
          "type": "bytes32"
        }
      ],
      "name": "UnwrapRequested",
      "type": "event"
    },
    {
      "inputs": [
        {
          "internalType": "address",
          "name": "account",
          "type": "address"
        }
      ],
      "name": "confidentialBalanceOf",
      "outputs": [
        {
          "internalType": "euint64",
          "name": "",
          "type": "bytes32"
        }
      ],
      "stateMutability": "view",
      "type": "function"
    },
    {
      "inputs": [],
      "name": "confidentialProtocolId",
      "outputs": [
        {
          "internalType": "uint256",
          "name": "",
          "type": "uint256"
        }
      ],
      "stateMutability": "view",
      "type": "function"
    },
    {
      "inputs": [],
      "name": "confidentialTotalSupply",
      "outputs": [
        {
          "internalType": "euint64",
          "name": "",
          "type": "bytes32"
        }
      ],
      "stateMutability": "view",
      "type": "function"
    },
    {
      "inputs": [
        {
          "internalType": "address",
          "name": "to",
          "type": "address"
        },
        {
          "internalType": "externalEuint64",
          "name": "encryptedAmount",
          "type": "bytes32"
        },
        {
          "internalType": "bytes",
          "name": "inputProof",
          "type": "bytes"
        }
      ],
      "name": "confidentialTransfer",
      "outputs": [
        {
          "internalType": "euint64",
          "name": "",
          "type": "bytes32"
        }
      ],
      "stateMutability": "nonpayable",
      "type": "function"
    },
    {
      "inputs": [
        {
          "internalType": "address",
          "name": "to",
          "type": "address"
        },
        {
          "internalType": "euint64",
          "name": "amount",
          "type": "bytes32"
        }
      ],
      "name": "confidentialTransfer",
      "outputs": [
        {
          "internalType": "euint64",
          "name": "",
          "type": "bytes32"
        }
      ],
      "stateMutability": "nonpayable",
      "type": "function"
    },
    {
      "inputs": [
        {
          "internalType": "address",
          "name": "to",
          "type": "address"
        },
        {
          "internalType": "euint64",
          "name": "amount",
          "type": "bytes32"
        },
        {
          "internalType": "bytes",
          "name": "data",
          "type": "bytes"
        }
      ],
      "name": "confidentialTransferAndCall",
      "outputs": [
        {
          "internalType": "euint64",
          "name": "transferred",
          "type": "bytes32"
        }
      ],
      "stateMutability": "nonpayable",
      "type": "function"
    },
    {
      "inputs": [
        {
          "internalType": "address",
          "name": "to",
          "type": "address"
        },
        {
          "internalType": "externalEuint64",
          "name": "encryptedAmount",
          "type": "bytes32"
        },
        {
          "internalType": "bytes",
          "name": "inputProof",
          "type": "bytes"
        },
        {
          "internalType": "bytes",
          "name": "data",
          "type": "bytes"
        }
      ],
      "name": "confidentialTransferAndCall",
      "outputs": [
        {
          "internalType": "euint64",
          "name": "transferred",
          "type": "bytes32"
        }
      ],
      "stateMutability": "nonpayable",
      "type": "function"
    },
    {
      "inputs": [
        {
          "internalType": "address",
          "name": "from",
          "type": "address"
        },
        {
          "internalType": "address",
          "name": "to",
          "type": "address"
        },
        {
          "internalType": "externalEuint64",
          "name": "encryptedAmount",
          "type": "bytes32"
        },
        {
          "internalType": "bytes",
          "name": "inputProof",
          "type": "bytes"
        }
      ],
      "name": "confidentialTransferFrom",
      "outputs": [
        {
          "internalType": "euint64",
          "name": "transferred",
          "type": "bytes32"
        }
      ],
      "stateMutability": "nonpayable",
      "type": "function"
    },
    {
      "inputs": [
        {
          "internalType": "address",
          "name": "from",
          "type": "address"
        },
        {
          "internalType": "address",
          "name": "to",
          "type": "address"
        },
        {
          "internalType": "euint64",
          "name": "amount",
          "type": "bytes32"
        }
      ],
      "name": "confidentialTransferFrom",
      "outputs": [
        {
          "internalType": "euint64",
          "name": "transferred",
          "type": "bytes32"
        }
      ],
      "stateMutability": "nonpayable",
      "type": "function"
    },
    {
      "inputs": [
        {
          "internalType": "address",
          "name": "from",
          "type": "address"
        },
        {
          "internalType": "address",
          "name": "to",
          "type": "address"
        },
        {
          "internalType": "externalEuint64",
          "name": "encryptedAmount",
          "type": "bytes32"
        },
        {
          "internalType": "bytes",
          "name": "inputProof",
          "type": "bytes"
        },
        {
          "internalType": "bytes",
          "name": "data",
          "type": "bytes"
        }
      ],
      "name": "confidentialTransferFromAndCall",
      "outputs": [
        {
          "internalType": "euint64",
          "name": "transferred",
          "type": "bytes32"
        }
      ],
      "stateMutability": "nonpayable",
      "type": "function"
    },
    {
      "inputs": [
        {
          "internalType": "address",
          "name": "from",
          "type": "address"
        },
        {
          "internalType": "address",
          "name": "to",
          "type": "address"
        },
        {
          "internalType": "euint64",
          "name": "amount",
          "type": "bytes32"
        },
        {
          "internalType": "bytes",
          "name": "data",
          "type": "bytes"
        }
      ],
      "name": "confidentialTransferFromAndCall",
      "outputs": [
        {
          "internalType": "euint64",
          "name": "transferred",
          "type": "bytes32"
        }
      ],
      "stateMutability": "nonpayable",
      "type": "function"
    },
    {
      "inputs": [],
      "name": "contractURI",
      "outputs": [
        {
          "internalType": "string",
          "name": "",
          "type": "string"
        }
      ],
      "stateMutability": "view",
      "type": "function"
    },
    {
      "inputs": [],
      "name": "decimals",
      "outputs": [
        {
          "internalType": "uint8",
          "name": "",
          "type": "uint8"
        }
      ],
      "stateMutability": "view",
      "type": "function"
    },
    {
      "inputs": [
        {
          "internalType": "euint64",
          "name": "encryptedAmount",
          "type": "bytes32"
        },
        {
          "internalType": "uint64",
          "name": "cleartextAmount",
          "type": "uint64"
        },
        {
          "internalType": "bytes",
          "name": "decryptionProof",
          "type": "bytes"
        }
      ],
      "name": "discloseEncryptedAmount",
      "outputs": [],
      "stateMutability": "nonpayable",
      "type": "function"
    },
    {
      "inputs": [
        {
          "internalType": "euint64",
          "name": "burntAmount",
          "type": "bytes32"
        },
        {
          "internalType": "uint64",
          "name": "burntAmountCleartext",
          "type": "uint64"
        },
        {
          "internalType": "bytes",
          "name": "decryptionProof",
          "type": "bytes"
        }
      ],
      "name": "finalizeUnwrap",
      "outputs": [],
      "stateMutability": "nonpayable",
      "type": "function"
    },
    {
      "inputs": [],
      "name": "inferredTotalSupply",
      "outputs": [
        {
          "internalType": "uint256",
          "name": "",
          "type": "uint256"
        }
      ],
      "stateMutability": "view",
      "type": "function"
    },
    {
      "inputs": [
        {
          "internalType": "address",
          "name": "holder",
          "type": "address"
        },
        {
          "internalType": "address",
          "name": "spender",
          "type": "address"
        }
      ],
      "name": "isOperator",
      "outputs": [
        {
          "internalType": "bool",
          "name": "",
          "type": "bool"
        }
      ],
      "stateMutability": "view",
      "type": "function"
    },
    {
      "inputs": [],
      "name": "maxTotalSupply",
      "outputs": [
        {
          "internalType": "uint256",
          "name": "",
          "type": "uint256"
        }
      ],
      "stateMutability": "view",
      "type": "function"
    },
    {
      "inputs": [],
      "name": "name",
      "outputs": [
        {
          "internalType": "string",
          "name": "",
          "type": "string"
        }
      ],
      "stateMutability": "view",
      "type": "function"
    },
    {
      "inputs": [
        {
          "internalType": "address",
          "name": "",
          "type": "address"
        },
        {
          "internalType": "address",
          "name": "from",
          "type": "address"
        },
        {
          "internalType": "uint256",
          "name": "amount",
          "type": "uint256"
        },
        {
          "internalType": "bytes",
          "name": "data",
          "type": "bytes"
        }
      ],
      "name": "onTransferReceived",
      "outputs": [
        {
          "internalType": "bytes4",
          "name": "",
          "type": "bytes4"
        }
      ],
      "stateMutability": "nonpayable",
      "type": "function"
    },
    {
      "inputs": [],
      "name": "rate",
      "outputs": [
        {
          "internalType": "uint256",
          "name": "",
          "type": "uint256"
        }
      ],
      "stateMutability": "view",
      "type": "function"
    },
    {
      "inputs": [
        {
          "internalType": "euint64",
          "name": "encryptedAmount",
          "type": "bytes32"
        }
      ],
      "name": "requestDiscloseEncryptedAmount",
      "outputs": [],
      "stateMutability": "nonpayable",
      "type": "function"
    },
    {
      "inputs": [
        {
          "internalType": "address",
          "name": "operator",
          "type": "address"
        },
        {
          "internalType": "uint48",
          "name": "until",
          "type": "uint48"
        }
      ],
      "name": "setOperator",
      "outputs": [],
      "stateMutability": "nonpayable",
      "type": "function"
    },
    {
      "inputs": [
        {
          "internalType": "bytes4",
          "name": "interfaceId",
          "type": "bytes4"
        }
      ],
      "name": "supportsInterface",
      "outputs": [
        {
          "internalType": "bool",
          "name": "",
          "type": "bool"
        }
      ],
      "stateMutability": "view",
      "type": "function"
    },
    {
      "inputs": [],
      "name": "symbol",
      "outputs": [
        {
          "internalType": "string",
          "name": "",
          "type": "string"
        }
      ],
      "stateMutability": "view",
      "type": "function"
    },
    {
      "inputs": [],
      "name": "underlying",
      "outputs": [
        {
          "internalType": "contract IERC20",
          "name": "",
          "type": "address"
        }
      ],
      "stateMutability": "view",
      "type": "function"
    },
    {
      "inputs": [
        {
          "internalType": "address",
          "name": "from",
          "type": "address"
        },
        {
          "internalType": "address",
          "name": "to",
          "type": "address"
        },
        {
          "internalType": "externalEuint64",
          "name": "encryptedAmount",
          "type": "bytes32"
        },
        {
          "internalType": "bytes",
          "name": "inputProof",
          "type": "bytes"
        }
      ],
      "name": "unwrap",
      "outputs": [],
      "stateMutability": "nonpayable",
      "type": "function"
    },
    {
      "inputs": [
        {
          "internalType": "address",
          "name": "from",
          "type": "address"
        },
        {
          "internalType": "address",
          "name": "to",
          "type": "address"
        },
        {
          "internalType": "euint64",
          "name": "amount",
          "type": "bytes32"
        }
      ],
      "name": "unwrap",
      "outputs": [],
      "stateMutability": "nonpayable",
      "type": "function"
    },
    {
      "inputs": [
        {
          "internalType": "address",
          "name": "to",
          "type": "address"
        },
        {
          "internalType": "uint256",
          "name": "amount",
          "type": "uint256"
        }
      ],
      "name": "wrap",
      "outputs": [],
      "stateMutability": "nonpayable",
      "type": "function"
    }
  ],
  "bytecode": "0x60e0806040523461072c57612ad0803803809161001c828561074b565b8339810160808282031261072c5781516001600160a01b0381169081900361072c5760208301516001600160401b03811161072c578261005d918501610789565b60408401519093906001600160401b03811161072c578361007f918301610789565b60608201519093906001600160401b03811161072c5761009f9201610789565b906100a861086a565b5046600103610640576100b961086a565b506040516100c681610730565b73ca2e8f1f656cd25c01f05d0b243ab1ecd4a8ffb6815273d82385dada1ae3e969447f20a3164f6213100e7560208201527377627828a55156b04ac0dc0eb30467f1a552bb0360408201525b80517f9e7b61f58c47dc699ac88507c4f5bb9f121c03808c5676a8078fe583e464970080546001600160a01b03199081166001600160a01b039384161790915560208301517f9e7b61f58c47dc699ac88507c4f5bb9f121c03808c5676a8078fe583e4649701805483169184169190911790556040909201517f9e7b61f58c47dc699ac88507c4f5bb9f121c03808c5676a8078fe583e46497028054909316911617905583516001600160401b03811161047657600354600181811c91168015610636575b602082101461045857601f81116105d3575b50602094601f8211600114610570579481929394955f92610565575b50508160011b915f199060031b1c1916176003555b82516001600160401b03811161047657600454600181811c9116801561055b575b602082101461045857601f81116104f8575b506020601f821160011461049557819293945f9261048a575b50508160011b915f199060031b1c1916176004555b8151916001600160401b03831161047657600554600181811c9116801561046c575b602082101461045857601f8111610412575b50602090601f84116001146103aa576102e993915f918361039f575b50508160011b915f199060031b1c1916176005555b806080526107cf565b60ff81169060068211156103915750600660a0526005190160ff811161037d5760ff16604d811161037d57600a0a60c0525b60405161224790816108898239608051818181610615015281816108480152818161093301528181610abb0152611127015260a05181610c63015260c0518181816105940152818161088e01528181610a6301528181610cea01526111650152f35b634e487b7160e01b5f52601160045260245ffd5b60a05250600160c05261031b565b015190505f806102cb565b90601f1984169160055f52815f20925f5b8181106103fa57509160019391866102e99794106103e2575b505050811b016005556102e0565b01515f1960f88460031b161c191690555f80806103d4565b929360206001819287860151815501950193016103bb565b60055f5260205f20601f850160051c8101916020861061044e575b601f0160051c01905b81811061044357506102af565b5f8155600101610436565b909150819061042d565b634e487b7160e01b5f52602260045260245ffd5b90607f169061029d565b634e487b7160e01b5f52604160045260245ffd5b015190505f80610266565b601f1982169060045f52805f20915f5b8181106104e0575095836001959697106104c8575b505050811b0160045561027b565b01515f1960f88460031b161c191690555f80806104ba565b9192602060018192868b0151815501940192016104a5565b60045f527f8a35acfbc15ff81a39ae7d344fd709f28e8600b4aa8c65c6b64bfe7fe36bd19b601f830160051c81019160208410610551575b601f0160051c01905b818110610546575061024d565b5f8155600101610539565b9091508190610530565b90607f169061023b565b015190505f80610205565b601f1982169560035f52805f20915f5b8881106105bb575083600195969798106105a3575b505050811b0160035561021a565b01515f1960f88460031b161c191690555f8080610595565b91926020600181928685015181550194019201610580565b60035f527fc2575a0e9e593c00f959f8c92f12db2869c3395a3b0502d05e2516446f71f85b601f830160051c8101916020841061062c575b601f0160051c01905b81811061062157506101e9565b5f8155600101610614565b909150819061060b565b90607f16906101d7565b4662aa36a7036106af5761065261086a565b5060405161065f81610730565b73f0ffdc93b7e186bc2f8cb3daa75d86d1930a433d81527392c920834ec8941d2c77d188936e1f7a6f49c127602082015273be0e383937d564d7ff0bc3b46c51f0bf8d5c311a6040820152610112565b46617a690361071d576106c061086a565b506040516106cd81610730565b7350157cffd6bbfa2dece204a89ec419c23ef5755d815273e3a9105a3a932253a70f126eb1e3b589c643dd24602082015273be0e383937d564d7ff0bc3b46c51f0bf8d5c311a6040820152610112565b6373cac13b60e01b5f5260045ffd5b5f80fd5b606081019081106001600160401b0382111761047657604052565b601f909101601f19168101906001600160401b0382119082101761047657604052565b6001600160401b03811161047657601f01601f191660200190565b81601f8201121561072c578051906107a08261076e565b926107ae604051948561074b565b8284526020838301011161072c57815f9260208093018386015e8301015290565b5f8091604051602081019063313ce56760e01b8252600481526107f360248261074b565b51916001600160a01b03165afa3d15610862573d906108118261076e565b9161081f604051938461074b565b82523d5f602084013e5b80610857575b6108395750601290565b60208180518101031261072c576020015160ff8116810361072c5790565b50602081511461082f565b606090610829565b6040519061087782610730565b5f604083828152826020820152015256fe6080806040526004361015610012575f80fd5b5f3560e01c90816301ffc9a714610dea5750806306fdde0314610d2f5780632ab4d05214610d0d5780632c4e722e14610cd35780632fb74e6214610c87578063313ce56714610c4a578063344ff10114610c1357806334c4574314610b7e578063537d3c5014610b1c5780635409522714610aff5780635bb67a05146109b95780635bebed7e146109825780635bf4ef06146109575780636f307dc31461091457806388a7ca5c146107fe5780638927b030146107e457806395d89b4114610729578063b1af281e14610699578063b6363cf214610663578063bf376c7a14610575578063c7b8a75e146104e2578063d4febb9614610455578063d806180614610400578063de6421191461034b578063e064b9bb14610309578063e8a3d485146101fd578063e8c15fd4146101d5578063eb3155b5146101815763f89d30b11461015b575f80fd5b3461017d575f36600319011261017d57602061017561110c565b604051908152f35b5f80fd5b3461017d5760206101c261019436610f5b565b916101a933846101a433826119c9565b611048565b6101bd33826101b833826110ba565b61101d565b611344565b6101cc3382611377565b50604051908152f35b3461017d576101fb6101e636610f5b565b916101f633846101a433826119c9565b61158e565b005b3461017d575f36600319011261017d576040515f6005548060011c906001811680156102ff575b6020831081146102eb578285529081156102c75750600114610269575b6102658361025181850382610f95565b604051918291602083526020830190610e3d565b0390f35b91905060055f527f036b6384b5eca791c62761152d0c79bb0604c104a5fb6f4eb0703f3154bb3db0915f905b8082106102ad57509091508101602001610251610241565b919260018160209254838588010152019101909291610295565b60ff191660208086019190915291151560051b840190910191506102519050610241565b634e487b7160e01b5f52602260045260245ffd5b91607f1691610224565b3461017d5760206101c261034561033f61032236610f03565b6103389694969592939533886101b833826110ba565b3691610fe7565b906111cc565b91611344565b3461017d57608036600319011261017d57610364610e61565b60443567ffffffffffffffff811161017d57610384903690600401610e8d565b906064359167ffffffffffffffff831161017d576020936103f26103fa926103e46103d86103d16103c96103bf6101c29a3690600401610e8d565b9990953691610fe7565b6024356111cc565b8533611344565b95869283863333611bb1565b6103ec611ebb565b90611cc5565b903390611a49565b90611d93565b3461017d57602036600319011261017d5760043561042333826101a433826119c9565b61042c816118f8565b5033907f189c3bfae2e5ce7726b29d57bb6ed0f1a7ebcd153a863ff5ecb6cd998064c98c5f80a3005b3461017d57604036600319011261017d5761046e610e61565b6024359065ffffffffffff821680920361017d576001600160a01b0390335f52600160205260405f208282165f5260205260405f208365ffffffffffff1982541617905560405192835216907f921a218a75d18e8ec5704851e6b234a85725b21a2521ce889622c35dedc1fa1260203392a3005b3461017d57608036600319011261017d576104fb610e61565b610503610e77565b9060643560443567ffffffffffffffff821161017d576020936101c29361056f6103fa936103e461053b610563973690600401610e8d565b97909261054d33826101a433826119c9565b61055c33876101b833826110ba565b8686611344565b96879283878733611bb1565b91611a49565b3461017d57604036600319011261017d5761058e610e61565b602435907f00000000000000000000000000000000000000000000000000000000000000006105bd81846110b0565b83039083821161064f5761064361063e67ffffffffffffffff926101fb9661063961064996604051906323b872dd60e01b6020830152336024830152306044830152606482015260648152610613608482610f95565b7f0000000000000000000000000000000000000000000000000000000000000000611e18565b611092565b6117a5565b16611e6c565b906117d8565b634e487b7160e01b5f52601160045260245ffd5b3461017d57604036600319011261017d57602061068f610681610e61565b610689610e77565b906110ba565b6040519015158152f35b3461017d576107227f83bbbc07896439e5d950a6cead04cbc676180af7a61cecf43f5296475057f57160206106cd36610ebb565b92959060409261071c8451926106e38685610f95565b60018452601f1986013689860137896106fb85611071565b5267ffffffffffffffff865193169687898501528884526103388785610f95565b91611428565b51908152a2005b3461017d575f36600319011261017d576040515f6004548060011c906001811680156107da575b6020831081146102eb578285529081156102c7575060011461077c576102658361025181850382610f95565b91905060045f527f8a35acfbc15ff81a39ae7d344fd709f28e8600b4aa8c65c6b64bfe7fe36bd19b915f905b8082106107c057509091508101602001610251610241565b9192600181602092548385880101520191019092916107a8565b91607f1691610750565b3461017d575f36600319011261017d5760206101756118c9565b3461017d57608036600319011261017d57610817610e61565b50610820610e77565b6044359060643567ffffffffffffffff811161017d57610844903690600401610e8d565b90927f000000000000000000000000000000000000000000000000000000000000000093336001600160a01b038616036109015760146108cd93105f146108f7575082905b6108c77f00000000000000000000000000000000000000000000000000000000000000009261064967ffffffffffffffff61064361063e8787611092565b506110b0565b90816108e6575b604051632229f29760e21b8152602090f35b6108ef92611550565b8080806108d4565b3560601c90610889565b63782c6ffd60e01b5f523360045260245ffd5b3461017d575f36600319011261017d5760206040516001600160a01b037f0000000000000000000000000000000000000000000000000000000000000000168152f35b3461017d576101fb61097c61033f61096e36610f03565b959395949192943691610fe7565b9161158e565b3461017d57604036600319011261017d5760206101756109a0610e61565b602435906109b333836101a433826119c9565b33611344565b3461017d576109c736610ebb565b919092805f5260066020526001600160a01b0360405f205416938415610aec57610a6190825f52600660205260405f2073ffffffffffffffffffffffffffffffffffffffff19815416905560409361071c855192610a258785610f95565b60018452601f19870136602086013785610a3e85611071565b5267ffffffffffffffff8751931697886020850152602084526103388885610f95565b7f00000000000000000000000000000000000000000000000000000000000000009283810293818504148115171561064f57610adf7f2d4edf3c2943002120f53dab3f8940043f34799f4a92ab90f2f81f7dd004a49e94867f0000000000000000000000000000000000000000000000000000000000000000611550565b82519182526020820152a2005b506368b187c760e11b5f5260045260245ffd5b3461017d575f36600319011261017d576020600254604051908152f35b3461017d57606036600319011261017d57610b35610e61565b6024359060443567ffffffffffffffff811161017d576103fa6101c2926103f26020956103e4610b6c6103d8963690600401610e8d565b9690926103d133826101a433826119c9565b3461017d5760a036600319011261017d57610b97610e61565b610b9f610e77565b60643567ffffffffffffffff811161017d57610bbf903690600401610e8d565b6084359267ffffffffffffffff841161017d5760209461056f6103fa936103e461056361055c610c0b610bf96101c29b3690600401610e8d565b9a9095610338338a6101b833826110ba565b6044356111cc565b3461017d57602036600319011261017d576001600160a01b03610c34610e61565b165f525f602052602060405f2054604051908152f35b3461017d575f36600319011261017d57602060405160ff7f0000000000000000000000000000000000000000000000000000000000000000168152f35b3461017d57606036600319011261017d57610ca0610e61565b60443567ffffffffffffffff811161017d57602091610ccc6103c9610338610175943690600401610e8d565b9033611344565b3461017d575f36600319011261017d5760206040517f00000000000000000000000000000000000000000000000000000000000000008152f35b3461017d575f36600319011261017d57602060405167ffffffffffffffff8152f35b3461017d575f36600319011261017d576040515f6003548060011c90600181168015610de0575b6020831081146102eb578285529081156102c75750600114610d82576102658361025181850382610f95565b91905060035f527fc2575a0e9e593c00f959f8c92f12db2869c3395a3b0502d05e2516446f71f85b915f905b808210610dc657509091508101602001610251610241565b919260018160209254838588010152019101909291610dae565b91607f1691610d56565b3461017d57602036600319011261017d576004359063ffffffff60e01b821680920361017d576020916312563ca960e21b8114908115610e2c575b5015158152f35b6301ffc9a760e01b14905083610e25565b805180835260209291819084018484015e5f828201840152601f01601f1916010190565b600435906001600160a01b038216820361017d57565b602435906001600160a01b038216820361017d57565b9181601f8401121561017d5782359167ffffffffffffffff831161017d576020838186019501011161017d57565b606060031982011261017d576004359160243567ffffffffffffffff8116810361017d57916044359067ffffffffffffffff821161017d57610eff91600401610e8d565b9091565b90608060031983011261017d576004356001600160a01b038116810361017d57916024356001600160a01b038116810361017d5791604435916064359067ffffffffffffffff821161017d57610eff91600401610e8d565b606090600319011261017d576004356001600160a01b038116810361017d57906024356001600160a01b038116810361017d579060443590565b90601f8019910116810190811067ffffffffffffffff821117610fb757604052565b634e487b7160e01b5f52604160045260245ffd5b67ffffffffffffffff8111610fb757601f01601f191660200190565b929192610ff382610fcb565b916110016040519384610f95565b82948184528183011161017d578281602093845f960137010152565b15611026575050565b906001600160a01b038092630f3e596760e31b5f52166004521660245260445ffd5b15611051575050565b6001600160a01b0392506367cfe80560e01b5f526004521660245260445ffd5b80511561107e5760200190565b634e487b7160e01b5f52603260045260245ffd5b811561109c570490565b634e487b7160e01b5f52601260045260245ffd5b811561109c570690565b6001600160a01b0316906001600160a01b03811682149182156110dc57505090565b9091505f5260016020526001600160a01b0360405f2091165f5260205265ffffffffffff60405f20541642111590565b6040516370a0823160e01b81523060048201526020816024817f00000000000000000000000000000000000000000000000000000000000000006001600160a01b03165afa80156111c1575f9061118d575b61118a91507f000000000000000000000000000000000000000000000000000000000000000090611092565b90565b506020813d6020116111b9575b816111a760209383610f95565b8101031261017d5761118a905161115e565b3d915061119a565b6040513d5f823e3d90fd5b8151909190156112e757602090611226926001600160a01b035f51602061221b5f395f51905f525416905f60405180968195829463045fc19560e11b84526004840152336024840152608060448401526084830190610e3d565b6005606483015203925af19081156111c1575f916112b5575b506001600160a01b037f9e7b61f58c47dc699ac88507c4f5bb9f121c03808c5676a8078fe583e46497005416803b1561017d57604051630f8e573b60e21b815260048101839052336024820152905f908290818381604481015b03925af180156111c1576112ab575090565b5f61118a91610f95565b90506020813d6020116112df575b816112d060209383610f95565b8101031261017d57515f61123f565b3d91506112c3565b506112f233826119c9565b156112fa5790565b630276b5d960e01b5f526004523360245260445ffd5b1561131757565b63ee457ebf60e01b5f525f60045260245ffd5b1561133157565b638d51880160e01b5f525f60045260245ffd5b9061118a929161135e6001600160a01b0382161515611310565b6113726001600160a01b038316151561132a565b611a49565b9081156113e5575b6001600160a01b037f9e7b61f58c47dc699ac88507c4f5bb9f121c03808c5676a8078fe583e46497005416803b1561017d57604051630f8e573b60e21b8152600481018490526001600160a01b0390921660248301525f90829081838160448101611299565b90506113ef611ebb565b9061137f565b90602080835192838152019201905f5b8181106114125750505090565b8251845260209384019390920191600101611405565b9160206114aa5f926001600160a01b037f9e7b61f58c47dc699ac88507c4f5bb9f121c03808c5676a8078fe583e46497025416906040519485809481936378542ead60e01b835260606004840152611498611486606485018d6113f5565b8481036003190160248601528b610e3d565b83810360031901604485015290610e3d565b03925af19081156111c1575f91611521575b5015611512577fc6366bab028b8d033cb362cfd1f2f3457ef4e92fc738b6788b90d5a7846367a09161150d6114ff926040519384936040855260408501906113f5565b908382036020850152610e3d565b0390a1565b63cf6c44e960e01b5f5260045ffd5b611543915060203d602011611549575b61153b8183610f95565b8101906119b1565b5f6114bc565b503d611531565b61158c926001600160a01b036040519363a9059cbb60e01b6020860152166024840152604483015260448252611587606483610f95565b611e18565b565b906001600160a01b0316918215611792576001600160a01b038216338114801561177d575b6115bf9084339161101d565b8015918215926115ce84611310565b80611756575b156116f8579061160a826115eb5f9460025461206e565b9190916115f781612028565b506002555b611604611ebb565b91611cc5565b93849361161985600254611d93565b61162281612028565b506002556116e7575b5061163583612028565b507f67500e8d0ed826d2194f514dd0d8124f35648ab6e3fb5e6ed867134cffe661e98280a4611663816118f8565b50805f5260066020526001600160a01b0360405f2054166116d3576020817f77d02d353c5629272875d11f1b34ec4c65d7430b075575b78cd2502034c469ee925f526006825260405f208473ffffffffffffffffffffffffffffffffffffffff19825416179055604051908152a2565b634e487b7160e01b5f52600160045260245ffd5b6116f19084612047565b505f61162b565b815f525f60205260405f20548015611743578161171a5f949361160a93611f57565b91909161172681612028565b506117318882612047565b508486528560205260408620556115fc565b826317fe473760e21b5f5260045260245ffd5b67ffffffffffffffff61176761110c565b11156115d4575b63a9e53fc360e01b5f5260045ffd5b506115bf61178b33856110ba565b90506115b3565b82638d51880160e01b5f5260045260245ffd5b67ffffffffffffffff81116117c15767ffffffffffffffff1690565b6306dfcc6560e41b5f52604060045260245260445ffd5b6001600160a01b0381168015918215936117f18561132a565b67ffffffffffffffff61180261110c565b1161176e57611823906118178160025461206e565b9091906115f781612028565b9384931561188e5761183784600254611d93565b61184081612028565b506002555b61187d575b5061185482612028565b505f7f67500e8d0ed826d2194f514dd0d8124f35648ab6e3fb5e6ed867134cffe661e98180a490565b6118879083612047565b505f61184a565b825f525f6020526118a38460405f2054612095565b6118ac81612028565b506118b78382612047565b50835f525f60205260405f2055611845565b466001036118d657600190565b4662aa36a7036118e65761271190565b617a6946146118f3575f90565b5f1990565b80156119a3575b604080519061190e8183610f95565b60018252601f1981013660208401378261192783611071565b526001600160a01b037f9e7b61f58c47dc699ac88507c4f5bb9f121c03808c5676a8078fe583e46497005416803b1561017d578151637d6e912360e11b815260206004820152925f9184918290849082906119869060248301906113f5565b03925af190811561199a57506112ab575090565b513d5f823e3d90fd5b506119ac611ebb565b6118ff565b9081602091031261017d5751801515810361017d5790565b7f9e7b61f58c47dc699ac88507c4f5bb9f121c03808c5676a8078fe583e4649700546040516382027b6d60e01b815260048101929092526001600160a01b039283166024830152909160209183916044918391165afa9081156111c1575f91611a30575090565b61118a915060203d6020116115495761153b8183610f95565b9190916001600160a01b03811680159283611b8b575b8315611b4257806115eb611a759260025461206e565b9384936001600160a01b038216938415918215611b0757611a9887600254611d93565b611aa181612028565b506002555b15611af6575b5015611ae5575b50611abd83612028565b507f67500e8d0ed826d2194f514dd0d8124f35648ab6e3fb5e6ed867134cffe661e95f80a490565b611aef9084612047565b505f611ab3565b611b009086612047565b505f611aac565b855f525f602052611b1c8760405f2054612095565b611b2581612028565b50611b308582612047565b50865f525f60205260405f2055611aa6565b815f525f60205260405f205480156117435790611b6281611a7593611f57565b919091611b6e81612028565b50611b798682612047565b50845f525f60205260405f20556115fc565b67ffffffffffffffff611b9c61110c565b1115611a5f5763a9e53fc360e01b5f5260045ffd5b92959490939091803b15611cb45792826001600160a01b039360a49385602097169986604051998a9889976346083bfd60e01b8952166004880152166024860152604485015260806064850152816084850152848401375f838284010152601f801991011681010301815f875af15f9181611c80575b50611c7c57823d15611c75573d611c3d81610fcb565b90611c4b6040519283610f95565b81523d5f602083013e5b80519081611c705782638d51880160e01b5f5260045260245ffd5b602001fd5b6060611c55565b9150565b9091506020813d602011611cac575b81611c9c60209383610f95565b8101031261017d5751905f611c27565b3d9150611c8f565b5050505050905061118a6001611f09565b91908215611d82575b8015611d74575b8115611d5e575b6064602092935f6001600160a01b035f51602061221b5f395f51905f5254166040519687958694637702dcff60e01b86526004860152602485015260448401525af19081156111c1575f91611d2f575090565b90506020813d602011611d56575b81611d4a60209383610f95565b8101031261017d575190565b3d9150611d3d565b602091506064611d6c611ebb565b925050611cdc565b50611d7d611ebb565b611cd5565b9150611d8d5f611f09565b91611cce565b908115611e08575b8015611df6575b60209060646001600160a01b035f51602061221b5f395f51905f525416935f60405195869485936303056db360e31b8552600485015260248401528160448401525af19081156111c1575f91611d2f575090565b506020611e01611ebb565b9050611da2565b9050611e12611ebb565b90611d9b565b905f602091828151910182855af1156111c1575f513d611e6357506001600160a01b0381163b155b611e475750565b6001600160a01b0390635274afe760e01b5f521660045260245ffd5b60011415611e40565b5f51602061221b5f395f51905f5254604051639cd07acb60e01b815260048101929092526001600160a01b0316816044815f602094600560248401525af19081156111c1575f91611d2f575090565b5f51602061221b5f395f51905f5254604051639cd07acb60e01b81525f6004820152906001600160a01b0316816044815f602094600560248401525af19081156111c1575f91611d2f575090565b5f51602061221b5f395f51905f5254604051639cd07acb60e01b815260048101929092526001600160a01b0316816044815f6020948160248401525af19081156111c1575f91611d2f575090565b9190918015611f7e5780611f78611f718561118a9461211a565b9482611d93565b84611cc5565b8215612018575060205f9260646001600160a01b035f51602061221b5f395f51905f52541691604051958693849263f77f3f1d60e01b84526004840152816024840152600160f81b60448401525af19182156111c1575f92611fe4575b5061118a611ebb565b9091506020813d602011612010575b8161200060209383610f95565b8101031261017d5751905f611fdb565b3d9150611ff3565b91506120246001611f09565b9190565b8015612039575b61118a308261219f565b50612042611ebb565b61202f565b908115612059575b61118a908261219f565b905061118a612066611ebb565b91905061204f565b919082156120185761208361118a9184612095565b9261208e818561211a565b9384611cc5565b90811561210a575b80156120f8575b60209060646001600160a01b035f51602061221b5f395f51905f525416935f604051958694859363022f65e760e31b8552600485015260248401528160448401525af19081156111c1575f91611d2f575090565b506020612103611ebb565b90506120a4565b9050612114611ebb565b9061209d565b90811561218f575b801561217d575b60209060646001600160a01b035f51602061221b5f395f51905f525416935f6040519586948593631391547f60e01b8552600485015260248401528160448401525af19081156111c1575f91611d2f575090565b506020612188611ebb565b9050612129565b9050612199611ebb565b90612122565b6001600160a01b037f9e7b61f58c47dc699ac88507c4f5bb9f121c03808c5676a8078fe583e4649700541691823b1561017d57604051635ca4b5b160e11b815260048101929092526001600160a01b03166024820152905f908290604490829084905af180156111c1576122105750565b5f61158c91610f9556fe9e7b61f58c47dc699ac88507c4f5bb9f121c03808c5676a8078fe583e4649701a164736f6c634300081b000a",
  "linkReferences": {},
  "deployedLinkReferences": {}
}