{
  "_format": "hh-sol-artifact-1",
  "contractName": "ConfidentialPayroll",
  "sourceName": "contracts/confidentialPayroll.sol",
  "abi": [
    {
      "inputs": [
        {
          "internalType": "address",
          "name": "_confidentialToken",
          "type": "address"
        },
        {
          "internalType": "address",
          "name": "_employer",
          "type": "address"
        }
      ],
      "stateMutability": "nonpayable",
      "type": "constructor"
    },
    {
      "inputs": [],
      "name": "AlreadyWhitelisted",
      "type": "error"
    },
    {
      "inputs": [],
      "name": "InputLengthMismatch",
      "type": "error"
    },
    {
      "inputs": [],
      "name": "InvalidEmployee",
      "type": "error"
    },
    {
      "inputs": [],
      "name": "InvalidToken",
      "type": "error"
    },
    {
      "inputs": [],
      "name": "LengthMismatch",
      "type": "error"
    },
    {
      "inputs": [],
      "name": "NotEmployee",
      "type": "error"
    },
    {
      "inputs": [],
      "name": "NotEmployer",
      "type": "error"
    },
    {
      "inputs": [],
      "name": "NotWhitelisted",
      "type": "error"
    },
    {
      "inputs": [],
      "name": "ReentrancyGuardReentrantCall",
      "type": "error"
    },
    {
      "anonymous": false,
      "inputs": [
        {
          "indexed": true,
          "internalType": "address",
          "name": "employer",
          "type": "address"
        },
        {
          "indexed": true,
          "internalType": "address",
          "name": "employee",
          "type": "address"
        },
        {
          "indexed": false,
          "internalType": "externalEuint64",
          "name": "encryptedBaseSalary",
          "type": "bytes32"
        },
        {
          "indexed": false,
          "internalType": "bytes",
          "name": "inputProof",
          "type": "bytes"
        },
        {
          "indexed": false,
          "internalType": "bytes",
          "name": "signature",
          "type": "bytes"
        }
      ],
      "name": "EmployeeOnboarded",
      "type": "event"
    },
    {
      "anonymous": false,
      "inputs": [
        {
          "indexed": true,
          "internalType": "address",
          "name": "employee",
          "type": "address"
        }
      ],
      "name": "EmployeeRemoved",
      "type": "event"
    },
    {
      "anonymous": false,
      "inputs": [
        {
          "indexed": true,
          "internalType": "address",
          "name": "employer",
          "type": "address"
        },
        {
          "indexed": true,
          "internalType": "address",
          "name": "employee",
          "type": "address"
        },
        {
          "indexed": false,
          "internalType": "externalEuint64",
          "name": "encryptedSalary",
          "type": "bytes32"
        },
        {
          "indexed": false,
          "internalType": "bytes",
          "name": "inputProof",
          "type": "bytes"
        },
        {
          "indexed": false,
          "internalType": "bytes",
          "name": "signature",
          "type": "bytes"
        },
        {
          "indexed": false,
          "internalType": "uint256",
          "name": "timestamp",
          "type": "uint256"
        },
        {
          "indexed": false,
          "internalType": "bytes32",
          "name": "txHash",
          "type": "bytes32"
        },
        {
          "indexed": false,
          "internalType": "address",
          "name": "payrollAddress",
          "type": "address"
        }
      ],
      "name": "EmployeeUpdated",
      "type": "event"
    },
    {
      "anonymous": false,
      "inputs": [
        {
          "indexed": true,
          "internalType": "address",
          "name": "employee",
          "type": "address"
        }
      ],
      "name": "EmployeeWhitelisted",
      "type": "event"
    },
    {
      "anonymous": false,
      "inputs": [
        {
          "indexed": true,
          "internalType": "address",
          "name": "employee",
          "type": "address"
        },
        {
          "indexed": false,
          "internalType": "euint64",
          "name": "encryptedAmount",
          "type": "bytes32"
        },
        {
          "indexed": false,
          "internalType": "uint256",
          "name": "timestamp",
          "type": "uint256"
        },
        {
          "indexed": false,
          "internalType": "bytes32",
          "name": "txHash",
          "type": "bytes32"
        }
      ],
      "name": "SalaryClaimed",
      "type": "event"
    },
    {
      "anonymous": false,
      "inputs": [
        {
          "indexed": true,
          "internalType": "address",
          "name": "employer",
          "type": "address"
        },
        {
          "indexed": true,
          "internalType": "address",
          "name": "employee",
          "type": "address"
        },
        {
          "indexed": true,
          "internalType": "uint256",
          "name": "indexInHistory",
          "type": "uint256"
        },
        {
          "indexed": false,
          "internalType": "euint64",
          "name": "encryptedAmount",
          "type": "bytes32"
        },
        {
          "indexed": false,
          "internalType": "uint256",
          "name": "timestamp",
          "type": "uint256"
        },
        {
          "indexed": false,
          "internalType": "bytes32",
          "name": "txHash",
          "type": "bytes32"
        },
        {
          "indexed": false,
          "internalType": "address",
          "name": "payrollAddress",
          "type": "address"
        }
      ],
      "name": "SalaryPaid",
      "type": "event"
    },
    {
      "inputs": [
        {
          "internalType": "address[]",
          "name": "employees",
          "type": "address[]"
        },
        {
          "internalType": "externalEuint64[]",
          "name": "encryptedSalaries",
          "type": "bytes32[]"
        },
        {
          "internalType": "bytes[]",
          "name": "inputProofs",
          "type": "bytes[]"
        },
        {
          "internalType": "bytes[]",
          "name": "signatures",
          "type": "bytes[]"
        }
      ],
      "name": "batchOnboardEmployees",
      "outputs": [],
      "stateMutability": "nonpayable",
      "type": "function"
    },
    {
      "inputs": [
        {
          "internalType": "address[]",
          "name": "employees",
          "type": "address[]"
        },
        {
          "internalType": "externalEuint64[]",
          "name": "encryptedSalaries",
          "type": "bytes32[]"
        },
        {
          "internalType": "bytes[]",
          "name": "inputProofs",
          "type": "bytes[]"
        }
      ],
      "name": "batchPaySalaries",
      "outputs": [],
      "stateMutability": "nonpayable",
      "type": "function"
    },
    {
      "inputs": [],
      "name": "confidentialToken",
      "outputs": [
        {
          "internalType": "contract IConfidentialFungibleToken",
          "name": "",
          "type": "address"
        }
      ],
      "stateMutability": "view",
      "type": "function"
    },
    {
      "inputs": [
        {
          "internalType": "address",
          "name": "employee",
          "type": "address"
        },
        {
          "internalType": "externalEuint64",
          "name": "newEncryptedSalary",
          "type": "bytes32"
        },
        {
          "internalType": "bytes",
          "name": "newInputProof",
          "type": "bytes"
        },
        {
          "internalType": "bytes",
          "name": "newSignature",
          "type": "bytes"
        }
      ],
      "name": "editEmployee",
      "outputs": [],
      "stateMutability": "nonpayable",
      "type": "function"
    },
    {
      "inputs": [],
      "name": "employer",
      "outputs": [
        {
          "internalType": "address",
          "name": "",
          "type": "address"
        }
      ],
      "stateMutability": "view",
      "type": "function"
    },
    {
      "inputs": [
        {
          "internalType": "address",
          "name": "employee",
          "type": "address"
        },
        {
          "internalType": "externalEuint64",
          "name": "encryptedSalary",
          "type": "bytes32"
        },
        {
          "internalType": "bytes",
          "name": "inputProof",
          "type": "bytes"
        },
        {
          "internalType": "bytes",
          "name": "signature",
          "type": "bytes"
        }
      ],
      "name": "onboardEmployee",
      "outputs": [],
      "stateMutability": "nonpayable",
      "type": "function"
    },
    {
      "inputs": [
        {
          "internalType": "address",
          "name": "employee",
          "type": "address"
        },
        {
          "internalType": "externalEuint64",
          "name": "salaryEncrypted",
          "type": "bytes32"
        },
        {
          "internalType": "bytes",
          "name": "inputProof",
          "type": "bytes"
        }
      ],
      "name": "paySalary",
      "outputs": [],
      "stateMutability": "nonpayable",
      "type": "function"
    },
    {
      "inputs": [],
      "name": "protocolId",
      "outputs": [
        {
          "internalType": "uint256",
          "name": "",
          "type": "uint256"
        }
      ],
      "stateMutability": "pure",
      "type": "function"
    },
    {
      "inputs": [
        {
          "internalType": "address",
          "name": "employee",
          "type": "address"
        }
      ],
      "name": "removeEmployee",
      "outputs": [],
      "stateMutability": "nonpayable",
      "type": "function"
    },
    {
      "inputs": [
        {
          "internalType": "address",
          "name": "employee",
          "type": "address"
        }
      ],
      "name": "whitelisted",
      "outputs": [
        {
          "internalType": "bool",
          "name": "isWhitelisted",
          "type": "bool"
        }
      ],
      "stateMutability": "view",
      "type": "function"
    }
  ],
  "bytecode": "0x60806040523461022d57604051601f61112a38819003918201601f19168301916001600160401b0383118484101761023157808492604094855283398101031261022d57610058602061005183610264565b9201610264565b905f6060610064610245565b8281528260208201528260408201520152731364cbbf2cdf5032c47d8226a6f6fbd2afcdacac6060610094610245565b73687820221192c5b662b25367f70076a37bc79b6c80825273848b0066793bcc60346da1f49049357399b8d5956020830181905273a02cda4ca3a71d7c46997716f4283aa851c288126040840181905293909201939093527f9e7b61f58c47dc699ac88507c4f5bb9f121c03808c5676a8078fe583e464970080546001600160a01b031990811690941790557f9e7b61f58c47dc699ac88507c4f5bb9f121c03808c5676a8078fe583e46497018054841690911790557f9e7b61f58c47dc699ac88507c4f5bb9f121c03808c5676a8078fe583e46497028054831690911790557f9e7b61f58c47dc699ac88507c4f5bb9f121c03808c5676a8078fe583e46497038054909116731364cbbf2cdf5032c47d8226a6f6fbd2afcdacac17905560015f556001600160a01b0316801561021e57600280546001600160a01b0319169190911790556001600160a01b0381166102195750335b600180546001600160a01b0319166001600160a01b0392909216919091179055604051610eb190816102798239f35b6101ea565b63c1ab6dc160e01b5f5260045ffd5b5f80fd5b634e487b7160e01b5f52604160045260245ffd5b60405190608082016001600160401b0381118382101761023157604052565b51906001600160a01b038216820361022d5756fe60806040526004361015610011575f80fd5b5f3560e01c806307f89f6d146108035780630f5f738f1461075057806344cd413c1461055b578063509fa8d9146103ca5780636a7543cf146103a457806391c7b1af14610187578063ae200e7914610161578063d108177a146100e4578063d936547e146100a75763da1f12ab14610087575f80fd5b346100a3575f3660031901126100a35760206040516127118152f35b5f80fd5b346100a35760203660031901126100a3576001600160a01b036100c8610a88565b165f526003602052602060ff60405f2054166040519015158152f35b346100a35760203660031901126100a3576100fd610a88565b6001600160a01b03600154163303610152576001600160a01b0316805f52600360205260405f2060ff1981541690557fabae6e64cb4315875c29d42347a312f5e9fce4ab564e9722b43dd78d0751135a5f80a2005b6302e5827160e11b5f5260045ffd5b346100a3575f3660031901126100a35760206001600160a01b0360015416604051908152f35b346100a35760803660031901126100a35760043567ffffffffffffffff81116100a3576101b8903690600401610a57565b60243567ffffffffffffffff81116100a3576101d8903690600401610a57565b909260443567ffffffffffffffff81116100a3576101fa903690600401610a57565b92909160643567ffffffffffffffff81116100a35761021d903690600401610a57565b916001600160a01b036001541633036101525783871480159061039a575b8015610390575b610381575f5b87811061025157005b61026461025f828a85610b36565b610b5a565b906001600160a01b038216801561037257805f52600360205260ff60405f205416610363576103046001936102e86102d78b8f6102ca8f89908f826102c3916102d1968d5f52600360205260405f20600160ff19825416179055610b36565b3594610b6e565b3691610be6565b90610cc5565b916102e23084610dfe565b82610dfe565b6102f23382610dfe565b6001600160a01b036002541690610dfe565b61030f82888d610b36565b357fb643a8e16f7a8a52f23fb79c673d99e4df568e1694cd66b734dae7e22b7aa9f661033c848c8c610b6e565b9061035a61034b878c8c610b6e565b90604051948594339886610c78565b0390a301610248565b63b73e95e160e01b5f5260045ffd5b6379e7a80b60e01b5f5260045ffd5b63aaad13f760e01b5f5260045ffd5b5082871415610242565b508587141561023b565b346100a3575f3660031901126100a35760206001600160a01b0360025416604051908152f35b346100a3576103d836610acc565b94906001600160a01b03600195939554163303610152576001600160a01b03821695861561037257865f52600360205260ff60405f2054161561054c57610429610423368888610be6565b85610cc5565b926104343085610dfe565b61043e8185610dfe565b6104483385610dfe565b61045d6001600160a01b036002541685610dfe565b5f88815260046020526040902080549461047691610c2c565b5f19430195438711610538577f08d4b0fc14c8c921083101703bf5b601a6b4bacc6dea6528a0f5abe2793d63379661051e956104f5610510946104e760405193849260208401964087916054939183526bffffffffffffffffffffffff199060601b16602083015260348201520190565b03601f198101835282610bb0565b5190209760405196875260c0602088015260c0870191610c58565b918483036040860152610c58565b9242606083015260808201523060a08201528033930390a3005b634e487b7160e01b5f52601160045260245ffd5b630b094f2760e31b5f5260045ffd5b346100a35760603660031901126100a357610574610a88565b60443567ffffffffffffffff81116100a357610594903690600401610a9e565b906001600160a01b03600154163303610152576105af610ca7565b6001600160a01b03831691825f52600360205260ff60405f2054161561054c578215610372576105ec916105e4913691610be6565b602435610cc5565b6105f63382610dfe565b61060b6001600160a01b036002541682610dfe565b6106158382610dfe565b60025460405163eb3155b560e01b81523360048201526001600160a01b038581166024830152604482018490529091602091839160649183915f91165af1801561074557610716575b505f8281526004602052604090208054939061067b908390610c2c565b5f19430190438211610538576040805192406020840190815260609290921b6bffffffffffffffffffffffff191690830152605482018590527ff01e001b7c83170ea0ae70b416e93f2fb1bac21aa3775503d4ffd6ade7ee87d19161070d91906106e881607481016104e7565b5190206040805194855242602086015284015230606084015233929081906080820190565b0390a460015f55005b6020813d60201161073d575b8161072f60209383610bb0565b810103126100a3575161065e565b3d9150610722565b6040513d5f823e3d90fd5b346100a35761075e36610acc565b946001600160a01b03600194929454163303610152576001600160a01b03811695861561037257865f52600360205260ff60405f205416610363577fb643a8e16f7a8a52f23fb79c673d99e4df568e1694cd66b734dae7e22b7aa9f6946107f06107fe93895f52600360205260405f20600160ff198254161790556102e86102d76107ea368a8a610be6565b8b610cc5565b604051948594339886610c78565b0390a3005b346100a35760603660031901126100a35760043567ffffffffffffffff81116100a357610834903690600401610a57565b9060243567ffffffffffffffff81116100a357610855903690600401610a57565b60449291923567ffffffffffffffff81116100a357610878903690600401610a57565b9490936001600160a01b0360015416330361015257610895610ca7565b828214801590610a4d575b610a3e575f949194915f194301944386119540935b8781106108c25760015f55005b6108d061025f828a85610b36565b906001600160a01b038216805f52600360205260ff60405f2054161561054c5761090e8b6102d16102ca85610906818e8d610b36565b35938a610b6e565b906109193383610dfe565b61092e6001600160a01b036002541683610dfe565b6109388483610dfe565b60025460405163eb3155b560e01b81523360048201526001600160a01b038681166024830152604482018590529091602091839160649183915f91165af1801561074557610a10575b505f818152600460205260409020805492908b906109a0908390610c2c565b610538577ff01e001b7c83170ea0ae70b416e93f2fb1bac21aa3775503d4ffd6ade7ee87d1610a078a856106e86001996104e7604051938492602084019687916054939183526bffffffffffffffffffffffff199060601b16602083015260348201520190565b0390a4016108b5565b6020813d8211610a36575b81610a2860209383610bb0565b810103126100a35751610981565b3d9150610a1b565b631fec674760e31b5f5260045ffd5b50858214156108a0565b9181601f840112156100a35782359167ffffffffffffffff83116100a3576020808501948460051b0101116100a357565b600435906001600160a01b03821682036100a357565b9181601f840112156100a35782359167ffffffffffffffff83116100a357602083818601950101116100a357565b60806003198201126100a3576004356001600160a01b03811681036100a357916024359160443567ffffffffffffffff81116100a35781610b0f91600401610a9e565b929092916064359067ffffffffffffffff82116100a357610b3291600401610a9e565b9091565b9190811015610b465760051b0190565b634e487b7160e01b5f52603260045260245ffd5b356001600160a01b03811681036100a35790565b9190811015610b465760051b81013590601e19813603018212156100a357019081359167ffffffffffffffff83116100a35760200182360381136100a3579190565b90601f8019910116810190811067ffffffffffffffff821117610bd257604052565b634e487b7160e01b5f52604160045260245ffd5b92919267ffffffffffffffff8211610bd25760405191610c10601f8201601f191660200184610bb0565b8294818452818301116100a3578281602093845f960137010152565b80549068010000000000000000821015610bd25760018201808255821015610b46575f5260205f200155565b908060209392818452848401375f828201840152601f01601f1916010190565b9391610ca49593610c96928652606060208701526060860191610c58565b926040818503910152610c58565b90565b60025f5414610cb65760025f55565b633ee5aeb560e01b5f5260045ffd5b60209182916001600160a01b037f9e7b61f58c47dc699ac88507c4f5bb9f121c03808c5676a8078fe583e46497015416905f60a460405180978196829563196d0b9b60e01b84526004840152336024840152608060448401528051918291826084860152018484015e818101830184905260056064830152601f01601f191681010301925af1908115610745575f91610dcc575b506001600160a01b037f9e7b61f58c47dc699ac88507c4f5bb9f121c03808c5676a8078fe583e46497005416803b156100a357604051630f8e573b60e21b815260048101839052336024820152905f908290604490829084905af1801561074557610dc2575090565b5f610ca491610bb0565b90506020813d602011610df6575b81610de760209383610bb0565b810103126100a357515f610d59565b3d9150610dda565b6001600160a01b037f9e7b61f58c47dc699ac88507c4f5bb9f121c03808c5676a8078fe583e4649700541691823b156100a357604051635ca4b5b160e11b815260048101929092526001600160a01b03166024820152905f908290604490829084905af1801561074557610e6f5750565b5f610e7991610bb0565b56fea26469706673582212209edb8b852276e0c2a44f142b72130b45b568d56986c0a113adf78978e124202964736f6c634300081b0033",
  "linkReferences": {},
  "deployedLinkReferences": {}
}